:100000000C94FC000C94BE2C0C94EB2C0C9424014E
:100010000C9431270C9413250C9424010C94240186
:100020000C9424010C9424010C9424010C942401BC
:100030000C9424010C9424010C9424010C942401AC
:100040000C94182D0C9424010C9481300C94B33032
:100050000C9424010C9424010C9424010C9424018C
:100060000C94612B0C94240158075B075F0763070E
:10007000660742084208420842084208420842080D
:1000800042084208420842087007B807CD07D8075F
:10009000E207EC07420842084208420842084208C8
:1000A0004208420842084208FD0707080408000801
:1000B0000008040807080B084208420842084208E2
:1000C0004208420842084208150820083408050C76
:1000D0000B0C080CFD0B100C000C100CF70B100C8B
:1000E000100C100CFA0B00C20100010011001100ED
:1000F0000C0000E100000A00250025002100009608
:1001000000001900390039003600127A00001F0083
:100110004600460044008070000022004D004D0063
:100120004A00004B00003600750075007200403830
:1001300000004A009C009C0099008025000072008D
:10014000EC00EC00E900C0120000E900DA01DA017D
:10015000D70160090000D701B603B603B303B004AA
:100160000000B3036E076E076B07580200006E07AE
:10017000DC0EDC0ED80E2C010000DC0EC11DC11DF2
:10018000BE1D00000008000201000003040700007B
:10019000000000000000010204081020408001025D
:1001A00004081020010204081020040404040404BC
:1001B0000404020202020202030303030303000019
:1001C0000000230026002900000000002500280070
:1001D0002B0000000000240027002A00F5019505EF
:1001E0005E08FB0A730E6C16A31DC32AE330B1052B
:1001F00065087A0E7316AB1D11241FBECFEFD8E031
:10020000DEBFCDBF11E0A0E0B1E0E0EAFCE602C055
:1002100005900D92A635B107D9F726E0A6E5B1E025
:1002200001C01D92AF3DB207E1F711E0CEEED1E083
:1002300004C02297FE010E946234CC3DD107C9F769
:100240000E9427310C9443360C940000EF92FF92E9
:100250000F931F93CF93DF937C01EC0100E010E03C
:10026000F701808D918D0817190744F48C850E9441
:10027000FF2D899399930F5F1F4FF2CFDF91CF919D
:100280001F910F91FF90EF900895AF92BF92CF9280
:10029000DF92EF92FF921F93CF93DF93EC017C01EB
:1002A000C12CD12C10E0AA24A394B12C888D998D57
:1002B000C816D9063CF5F70184850E94FF2DF70189
:1002C000408151819A01281B390B37FF03C03195BA
:1002D000219531096A8D7B8D261737073CF09501F2
:1002E0000C2C01C0220F0A94EAF7122B840F951FE1
:1002F00095958795F701819391937F01FFEFCF1A31
:10030000DF0AD4CF8CA19DA1AEA1BFA1892B8A2BDE
:100310008B2BA1F00E94622DC8A4D9A4EAA4FBA44F
:100320006C197D098E099F09C8A0D9A0EAA0FBA07D
:100330006C157D058E059F0508F048C0112309F452
:100340004AC04CA15DA16EA17FA14230510561055B
:10035000710578F44F5F5F4F6F4F7F4F4CA35DA3E4
:100360006EA37FA30E94622D68A779A78AA79BA787
:1003700032C01CA21DA21EA21FA28CA5882359F167
:100380000E94622DC0905601D0905701E090580114
:10039000F09059016C197D098E099F09CC8CDD8C78
:1003A000EE8CFF8C6C157D058E059F05A0F0EDA5EC
:1003B000FEA5812F09950E94622D609356017093CE
:1003C0005701809358019093590105C01CA21DA2AA
:1003D0001EA21FA2B3CFDF91CF911F91FF90EF908C
:1003E000DF90CF90BF90AF90089588EC90E090930D
:1003F00075018093740184EF91E0A0E0B0E08093F8
:10040000760190937701A0937801B09379018CE203
:1004100091E0A0E0B0E080937A0190937B01A093FB
:100420007C01B0937D0110927E0110927F011092A9
:1004300080011092810108950C94370E0C94480E9F
:100440001F93CF93DF9381309105A9F074F4892B2A
:1004500009F080C087E392E00E940B0E0E94C42442
:10046000DF91CF911F910C9445068230910551F098
:100470000397E1F16FC087E392E0DF91CF911F9185
:100480000C94FF0D0E94C424809113018F5F809310
:100490001301843058F4E0911301F0E0E15FFE4F66
:1004A0008081DF91CF911F910C94B50510921301BB
:1004B000C8E0D0E064E070E080E090E00E94B731F6
:1004C000162F64E070E080E090E00E94B731A12F29
:1004D000B0E0A15FBE4F8C91E62FF0E0E15FFE4FF0
:1004E00090819C938083219729F7D5CF0E94231672
:1004F00080910E018F5F80930E01843058F4E0915B
:100500000E01F0E0E65FFE4F8081DF91CF911F91F9
:100510000C94E71D10920E01C8E0D0E064E070E09A
:1005200080E090E00E94B731162F64E070E080E038
:1005300090E00E94B731A12FB0E0A65FBE4F8C9132
:10054000E62FF0E0E65FFE4F90819C938083219739
:1005500029F7D5CFDF91CF911F910895BC018FE08E
:1005600092E00C94A009EF920F9380E390E00E9438
:100570001B36883409F4ADC068E480E390E00E9443
:100580002D3664E070E080E090E00E94B731613089
:1005900071058105910509F454C034F5672B682B6A
:1005A000692B09F091C03FE0E32E09E929E940E019
:1005B0006FEF81E193E00E947F1629E940E067EF49
:1005C00081E193E00E94C71900E020E640EA68E07C
:1005D00081E193E00E94C7194FE062E081E193E07E
:1005E0000E94AF1D82E06EC06230710581059105E9
:1005F00009F448C0633071058105910509F064C0B4
:100600008FE0E82E09E929E940E06FEF81E193E00E
:100610000E947F1629E940E067EF81E193E00E94A4
:10062000C71900E020E640EA68E081E193E00E941B
:10063000C71941E061E081E193E00E94AF1D84E1D0
:1006400041C02FE0E22E00E020E640EA6FEF81E1BA
:1006500093E00E947F1620E640EA67EF81E193E095
:100660000E94C71909E929E940E068E081E193E0C7
:100670000E94C71944E165E081E193E00E94AF1D4B
:1006800088E020C09FE0E92E00EA20E040EA6FEF1A
:1006900081E193E00E947F1620E040EA67EF81E16C
:1006A00093E00E94C71909E929E940E068E081E187
:1006B00093E00E94C7194BE066E081E193E00E945D
:1006C000AF1D8EE00E945E1681E193E00E940A1D3C
:1006D00006C081E193E00E94D71D0E94651662E387
:1006E00070E080E090E00E94912D4091F4046091D0
:1006F000F30481E193E00F91EF900C94AF1D0F9301
:100700001F93CF93DF930E946A0E85E090E0909351
:10071000B1028093B002C6E0D0E0D093B302C093A0
:10072000B20289E090E09093B5028093B4028AE02F
:1007300090E09093B7028093B6021092B9021092A3
:10074000B80201E010E01093BB020093BA0288E9FE
:1007500092E00E94D91081E193E00E94771683E233
:1007600090E09093F6048093F50484E195E09093F3
:10077000FC048093FB0483E090E0909367018093F6
:10078000660182E090E09093690180936801109384
:100790006B0100936A0110926D0110926C01D0936D
:1007A0006F01C0936E0187E090E090937101809398
:1007B0007001D0937301C093720184E690E090932E
:1007C0007501809374018CE192E09093880180938D
:1007D000870184EF91E0A0E0B0E0809376019093F0
:1007E0007701A0937801B09379018AE591E00E94A6
:1007F000260188E090E090932305809322058CE009
:1008000090E090932505809324058EE192E09093EB
:100810002A05809329058EEA92E090932C05809317
:100820002B058DE195E00E94EF2480E00E94FF2DD2
:10083000BC01882777FD8095982F0E94AF310E94D8
:10084000721568EE73E080E090E00E94912D80E1E7
:100850000E947A150E94B3028FE092E00E94CE08B7
:1008600080E292E090933502809334028FE092E030
:100870000E94D70A87E392E0DF91CF911F910F91F9
:100880000C94FF0A80918B0181110AC084E00E94C0
:10089000132F90938A018093890181E080938B01CB
:1008A0008091890190918A01892B29F484E00E942A
:1008B000132F019741F084E00E94132F90938A0137
:1008C00080938901089588E992E00E94271120E031
:1008D00040E060E088E992E00E94D9121092280579
:1008E000109286018FE092E00E94F50AE4CF0F9308
:1008F0001F930E947E0E0E947A060E94CD1E87E3FF
:1009000092E00E94150E0E947E0E0E94622D0091C0
:10091000A7011091A8012091A9013091AA01601BA3
:10092000710B820B930B643171058105910500F108
:100930000E94622D6093A7017093A8018093A90182
:100940009093AA018FE092E00E942A0A81E193E04D
:100950000E94001D8AE591E00E9445010E94420428
:1009600080917B02811104C088E992E00E94E21428
:100970000E94622D0091A3011091A4012091A50174
:100980003091A601601B710B820B930B683C7105C3
:1009900081059105A0F00E94622D6093A3017093E0
:1009A000A4018093A5019093A60180917B028111FF
:1009B00006C08DE195E01F910F910C9436251F9193
:1009C0000F910895CF93DF9380EA90E00E941B3649
:1009D00024E0829FC0011124BC01882777FD809507
:1009E000982F0E94E032609393017093940180935A
:1009F00095019093960180EB90E00E941B36C4E035
:100A00008C9FC0011124BC01882777FD8095982F09
:100A10000E94E0326093970170939801809399014E
:100A200090939A0180EC90E00E941B36D4E08D9F59
:100A3000C0011124BC01882777FD8095982F0E9462
:100A4000E03260939B0170939C0180939D01909391
:100A50009E0180ED90E00E941B3624E0829FC00141
:100A60001124BC01882777FD8095982F0E94E032E1
:100A700060939F017093A0018093A1019093A201C4
:100A8000E3E9F1E023E632E04FE052E08191919119
:100A9000A191B191E90189939993A993B9939E0189
:100AA000EA0189939993A993B993AE01D1E0E33A0E
:100AB000FD0761F7DF91CF91089526E040E855E208
:100AC00060E070E08EE396E00E941F300E947F039A
:100AD0000E94E20488E090E0909323058093220531
:100AE0008CE090E090932505809324058EE192E0C0
:100AF00090932A05809329058DE195E00E94EF24CB
:100B00000E94622D6093A3017093A4018093A501BC
:100B10009093A6010E94622D6093A7017093A80193
:100B20008093A9019093AA01089520E04BE062E030
:100B30008BEA91E00E94AD270E94622D6093A7018D
:100B40007093A8018093A9019093AA010E94622D3D
:100B50006093A3017093A4018093A5019093A601D3
:100B600008958BEA91E00C94AE28CF93C82F0E9491
:100B7000622D6093CD017093CE018093CF0190934D
:100B8000D0010E94622D6093C9017093CA018093C5
:100B9000CB019093CC01C130D9F100F1C23009F4FE
:100BA00051C0C33009F06FC083E10E94E91584E6AB
:100BB00091E0A0E0B0E08093140190931501A09320
:100BC0001601B093170181E490E09093C8018093DF
:100BD000C70188ED99E5A0E0B0E04DC081E00E943A
:100BE000E9158AE092E0A0E0B0E0809314019093D0
:100BF0001501A0931601B093170181E190E0909345
:100C0000C8018093C70188EE90E8A0E0B0E033C04F
:100C100087E00E94E9158DE691E0A0E0B0E08093C6
:100C2000140190931501A0931601B093170181E26E
:100C300090E09093C8018093C7018CE594E4A0E014
:100C4000B0E019C08DE00E94E91589ED92E0A0E0C6
:100C5000B0E08093140190931501A0931601B09316
:100C6000170181E390E09093C8018093C70188EB5E
:100C700098E8A0E0B0E08093180190931901A09348
:100C80001A01B0931B01CF910895EF920F930E9428
:100C900027161092C8011092C70120E040E060E0E2
:100CA00088E992E00E94D91284E6E82E0091E304DC
:100CB0002091E2044091E1046FEF81E193E00E9412
:100CC0007F160091D1042091D0044091CF0467EFAA
:100CD00081E193E00E94C7190091DA042091D904C0
:100CE0004091D80468E081E193E00E94C7190F9118
:100CF000EF9008958F929F92AF92BF92CF92DF9222
:100D0000EF92FF920F931F938091C7019091C801BA
:100D1000892B09F4C8C10E94622D8090CD0190906A
:100D2000CE01A090CF01B090D001681979098A094D
:100D30009B098090180190901901A0901A01B09021
:100D40001B0186169706A806B90670F48FE092E09C
:100D50001F910F91FF90EF90DF90CF90BF90AF90D9
:100D60009F908F900C94D70A0E94622D00911401DD
:100D70001091150120911601309117018090C90141
:100D80009090CA01A090CB01B090CC01680179018C
:100D9000C818D908EA08FB0846015701860E971EB5
:100DA000A81EB91E081519052A053B0508F07BC1C8
:100DB0008091C7019091C801829709F450C0E12C3D
:100DC0000091E3042091E2044091E1046FEF81E19E
:100DD00093E00E947F160091D1042091D0044091AD
:100DE000CF0467EF81E193E00E94C7190091DA0414
:100DF0002091D9044091D80468E081E193E00E94F9
:100E0000C71960911401709115018091160190919C
:100E1000170124E1822E912CA12CB12CA501940163
:100E20000E941F34E22E00E020E040E06FEF81E1FD
:100E300093E00E947F1660911401709115018091DA
:100E4000160190911701A50194010E941F34E22E12
:100E500020E040E06FEF81E193E00E94C7198091AC
:100E6000C9019091CA01A091CB01B091CC014091F0
:100E70001401509115016091160170911701840FB2
:100E8000951FA61FB71F8093C9019093CA01A09315
:100E9000CB01B093CC01E091C701F091C8017197EB
:100EA000E333F10508F0EEC0EC5CFF4F0C946034C6
:100EB00020E04FEC7BC020E040E06FECCBC020E0B6
:100EC00040E06FE4C7C020E04FE470C020E04FEC8A
:100ED00060E088E992E00E94D91281E190E0CDC003
:100EE00020E04FE46FEC88E992E00E94D91226E9F5
:100EF0004FE06FE888E992E00E94D91282E290E028
:100F00009093C8018093C701E12C0091E3042091E4
:100F1000E2044091E1046FEF81E193E00E947F16CB
:100F20000091D1042091D0044091CF0467EF81E17A
:100F300093E00E94C7190091DA042091D9044091EE
:100F4000D80468E081E193E00E94C71998ECE92E8B
:100F500000E020E040E06FEF81E193E00E947F1627
:100F600020E040E06FEF81E193E00E94C7199BC051
:100F70000E94622D8090CD019090CE01A090CF0173
:100F8000B090D001681979098A099B09613A7F40BC
:100F90008105910508F487C02DC020E04FEF60E087
:100FA00088E992E00E94D91222E14FE860E052C045
:100FB00020E040E06FEF88E992E00E94D91222E140
:100FC00040E03CC020E04FE760E088E992E00E940A
:100FD000D91222E14FE0EACF20E040E06FEF88E94C
:100FE00092E00E94D91222E140E06FE888E992E0A5
:100FF0000E94D91283E290E040C020E04FEFD6CFAC
:1010000020E040E06FE726C020E04FE7CFCF20E0B0
:1010100040E06FEF1FC020E04FEF60E088E992E012
:101020000E94D91281E390E028C020E04FEF6FEFDB
:1010300088E992E00E94D91222E14FE86FE80AC0E5
:1010400020E04FE76FE788E992E00E94D91222E1A1
:101050004FE06FE088E992E00E94D9128091C701C9
:101060009091C801019609C020E04FE76FEF88E931
:1010700092E00E94D91281E490E09093C80180939D
:10108000C70111C020E040E060E088E992E01F91D4
:101090000F91FF90EF90DF90CF90BF90AF909F9017
:1010A0008F900C94D9121F910F91FF90EF90DF90C9
:1010B000CF90BF90AF909F908F90089520E04BE02D
:1010C00062E081ED91E00C94AD2781ED91E00C940C
:1010D000AE280F931F938091F70181110DC00E94DC
:1010E000622D6093ED017093EE018093EF01909378
:1010F000F00181E08093F7010E94622D0091ED01E3
:101100001091EE012091EF013091F001601B710B05
:10111000820B930B653F714081059105A0F40E94FD
:10112000622D6093ED017093EE018093EF01909337
:10113000F00180912B0290912C02019690932C0249
:1011400080932B020EC00E94622D6093ED0170937C
:10115000EE018093EF019093F00110922C02109217
:101160002B021F910F910895FC0183E090E0958B75
:10117000848B82E090E0978B868B81E090E0918F6A
:10118000808F138E128E178E168E118A108A938B73
:10119000828B158E148E84A317A20895CF93DF93AC
:1011A000EC0143E050E069E678E088890E948E2CEB
:1011B00043E050E069E678E08A89DF91CF910C94B2
:1011C0008E2C2F923F924F925F926F927F928F92CE
:1011D0009F92AF92BF92CF92DF92EF92FF920F93C6
:1011E0001F93CF93DF93CDB7DEB728970FB6F89450
:1011F000DEBF0FBECDBF8C01CE0101965C011E018A
:1012000099E0290E311C4801F80184890E94FF2DC4
:10121000F401C190D190E190F1904F01BC01882779
:1012200077FD8095982F0E94E032A70196010E94D9
:10123000DC312B013C01A701960160E070E080E801
:1012400094E40E9445329B01AC01C301B2010E94AB
:1012500094330E94AD32F501619371935F010E5F8B
:101260001F4FE215F30581F689819A812B813C811C
:10127000F901281739070CF4FC014D815E816F815B
:101280007885DF01E417F5070CF4DA016A177B07AC
:1012900044F44E175F073CF4281739075CF0F90156
:1012A00003C0FB0101C0FA01D9018217930724F49E
:1012B000DC0102C0FC01D901A417B50734F4D9013F
:1012C000821793071CF4DC0101C0DA01A617B707E7
:1012D0004CF4821793070CF49C01B9014217530791
:1012E0000CF4BA01E61BF70B81E0E83CF1050CF4C5
:1012F00080E028960FB6F894DEBF0FBECDBFDF9119
:10130000CF911F910F91FF90EF90DF90CF90BF9002
:10131000AF909F908F907F906F905F904F903F9095
:101320002F900895CF93DF93EC0188890E94AE2C13
:101330008A890E94AE2C1D8E1C8EDF91CF9108955C
:101340000F931F93CF93DF93EC018B0180910702E2
:1013500081110DC00E94622D6093F3017093F4011E
:101360008093F5019093F60181E0809307028091CC
:10137000FF01811107C01093F2010093F10181E098
:101380008093FF018CA1882309F449C08E8D9F8D25
:10139000892B09F044C08091F1019091F201892BD1
:1013A00099F40115110581F00E94622D6093F301FB
:1013B0007093F4018093F5019093F60181E090E041
:1013C0009093F2018093F1018091F1019091F201EB
:1013D000892B29F1012B19F51092F2011092F101DC
:1013E0000E94622D2BEE3FEF4091F3015091F401EA
:1013F000241B350B260F371F2B3B374080F4CE01C3
:101400000E94920983E090E09F8F8E8FEDA1FEA154
:1014100009950E94622D68A379A38AA39BA3DF91FB
:10142000CF911F910F910895CF93DF93EC0143E08B
:1014300050E069E678E088890E948E2C43E050E015
:1014400069E678E08A890E948E2C1D8E1C8EDF91C1
:10145000CF9108950F931F93CF93DF93EC018CA14D
:10146000882351F084E00E94132F892B09F48BC04C
:101470008FA1811188C010C084E00E94132F892B96
:1014800009F490C08FA181118DC0CE010E94140A71
:101490001F8E1E8E81E08CA38E8D9F8D81309105D5
:1014A00091F18330910509F456C0892B09F07AC077
:1014B000CE010E94E1088C8D9D8D44970CF472C082
:1014C000CE010E94E108882359F0CE010E949209C2
:1014D00081E090E09F8F8E8FEDA1FEA1099534C031
:1014E0008C8D9D8D4E970CF45DC0CE010E949209AB
:1014F00082E090E09F8F8E8FEDA1FEA1DF91CF91D2
:101500001F910F910994CE010E94E10881111CC026
:101510000E94622D08A119A12AA13BA1601B710B99
:10152000820B930B693E734081059105D8F11F8EA4
:101530001E8EEDA1FEA180E090E00995EDA1FEA137
:1015400083E090E0099518C00E94622D68A379A3FA
:101550008AA39BA327C00E94622D08A119A12AA1DA
:101560003BA1601B710B820B930B693E734081059D
:101570009105C0F01F8E1E8ECE01DF91CF911F917D
:101580000F910C94140ACE010E94920988E992E00E
:101590000E94D9101F8E1E8EEDA1FEA180E090E06A
:1015A00009951CA2DF91CF911F910F910895CF93C0
:1015B000DF93EC011F8E1E8EEDA1FEA180E090E076
:1015C00009958CA1882351F0EDA1FEA183E090E064
:1015D0000995CE01DF91CF910C94140ADF91CF9140
:1015E000089521E0FC0127A3089521E0FC0124A334
:1015F00017A20C94D70A8FE092E00C94B408EF92F3
:10160000FF920F931F93CF93DF93EC0183E090E061
:101610009983888382E090E09B838A8381E090E0D5
:101620009D838C831F821E82FE01EC5BFF4F108224
:10163000198618868FEF90E09B878A871D861C8607
:101640001F861E8680E090E0A0ECBFE3888B998B1C
:10165000AA8BBB8B8AE999E9A9E1BEE38C8B9D8BB0
:10166000AE8BBF8B4DEC5CEC6CE47DE3488F598F07
:101670006A8F7B8F40E050E060E771E44C8F5D8FB4
:101680006E8F7F8F19A218A21BA21AA21DA21CA2E4
:101690001FA21EA28EE591E099A788A78AEF90E08D
:1016A0009BA78AA785E090E09DAF8CAF86E090E095
:1016B0009FAF8EAF7E0180E4E80EF11C89E090E0E0
:1016C000F701918380838E010E5B1F4F8AE090E0CB
:1016D000F8019183808361E085E00E94A42E61E09F
:1016E0008EAD0E94A42E61E0F70180810E94A42E9D
:1016F00061E0F8018081DF91CF911F910F91FF9000
:10170000EF900C94A42E2F923F924F925F926F9283
:101710007F928F929F92AF92BF92CF92DF92EF9281
:10172000FF920F931F93CF93DF9300D000D0CDB7DC
:10173000DEB79C838B834C011C0183E090E09A838D
:101740008983A12CB12C00E010E0F40180810E947B
:10175000FF2DF101C4A4D5A4E6A4F7A4BC018827F9
:1017600077FD8095982F0E94E032A70196010E9494
:10177000DC312B013C01A701960160E070E080E8BC
:1017800094E40E9445329B01AC01C301B2010E9466
:10179000943320E030E048E453EC0E9441321816C4
:1017A00054F081E090E0098002C0880F991F0A94EC
:1017B000E2F7082B192BFFEFAF1ABF0A89819A8134
:1017C00001979A83898392E0890E911CE4E02E0EA2
:1017D000311CF4E0AF16B10409F0B7CFF80131972E
:1017E000EC30F105E8F4E959FF4F0C9460348CE4D7
:1017F0009FEF13C086EA9FEF10C084EC9FEF0DC0EF
:10180000EB81FC811186108620C084EB90E005C03E
:101810008AE590E002C08CE390E0EB81FC8113C08C
:10182000EB81FC818085918597FF04C08CE49FEF5C
:1018300091878087EB81FC81808591851816190638
:1018400024F484EB90E091878087C8010F900F907B
:101850000F900F90DF91CF911F910F91FF90EF901C
:10186000DF90CF90BF90AF909F908F907F906F90C0
:101870005F904F903F902F9008952F923F924F92FC
:101880005F926F927F928F929F92AF92BF92CF9210
:10189000DF92EF92FF920F931F93CF93DF93CDB719
:1018A000DEB72A970FB6F894DEBF0FBECDBF9A877A
:1018B0008987FC0120A031A033A222A200851185D6
:1018C00011A300A3B801882777FD8095982F0E9467
:1018D000E03269837A838B839C83E985FA8564A1EE
:1018E00075A1882777FD8095982F0E94E0326B01C3
:1018F0007C01E985FA85248935894689578969817A
:101900007A818B819C810E9494339B01AC01C70139
:10191000B6010E94DD310E94AD326D837E838F83DC
:1019200098872D813E81B901882777FD8095982F72
:101930000E94E0324B015C01E985FA85C48CD58CAC
:10194000E68CF78C2601370177FA709477F870945B
:10195000A30192010E94413287FF03C0C301B2017B
:101960000AC0A7019601C501B4010E949033181660
:1019700034F4C701B6010E94AD327B0102C0ED8094
:10198000FE80E985FA85F5A2E4A2208931894289A1
:10199000538969817A818B819C810E9494334B01A8
:1019A0005C01B80162197309882777FD8095982F2B
:1019B0000E94E032E985FA85208D318D428D538D6C
:1019C0000E9494339B01AC01C501B4010E94DD313A
:1019D0004B015C01B701882777FD8095982F0E9405
:1019E000E0329B01AC01C501B4010E94DD312A96B1
:1019F0000FB6F894DEBF0FBECDBFDF91CF911F9120
:101A00000F91FF90EF90DF90CF90BF90AF909F909D
:101A10008F907F906F905F904F903F902F900895A0
:101A2000CF92DF92EF92FF92CF93DF93EC016A8522
:101A30007B85882777FD8095982F0E94E0326B0187
:101A40007C01CE010E943D0C9B01AC01C701B60197
:101A50000E94DD3120E030E04FE753EC0E9441323C
:101A600087FD31C06A857B85882777FD8095982F13
:101A70000E94E0326B017C01CE010E943D0C9B0173
:101A8000AC01C701B6010E94DD3120E030E04FE734
:101A900053E40E9490331816CCF06A857B85882722
:101AA00077FD8095982F0E94E0326B017C01CE017A
:101AB0000E943D0C9B01AC01C701B6010E94DD31C3
:101AC0000E94AD3205C061E07FEF02C06FEF70E0B1
:101AD0007D876C876A857B85882777FD8095982F21
:101AE0000E94E0326B017C01CE010E943D0C9B0103
:101AF000AC01C701B6010E94DC3120E030E04FE7C5
:101B000053EC0E94413287FD31C06A857B8588276E
:101B100077FD8095982F0E94E0326B017C01CE0109
:101B20000E943D0C9B01AC01C701B6010E94DC3153
:101B300020E030E04FE753E40E9490331816CCF0D9
:101B40006A857B85882777FD8095982F0E94E032F3
:101B50006B017C01CE010E943D0C9B01AC01C701D1
:101B6000B6010E94DC310E94AD3205C061E07FEF1A
:101B700002C06FEF70E07F876E87DF91CF91FF909B
:101B8000EF90DF90CF900895EF92FF920F931F9305
:101B9000CF93DF93EC017B018A01FC01E05CFF4FF6
:101BA00077FD06C061E080810E94DD2EB70108C08C
:101BB00060E080810E94DD2E662777276E197F09FD
:101BC0008CAD0E941C2EFE01EE5BFF4F17FD06C080
:101BD00061E080810E94DD2EB80108C060E0808154
:101BE0000E94DD2E66277727601B710B8EADDF917B
:101BF000CF911F910F91FF90EF900C941C2ECF93DB
:101C0000DF93EC010E94FF0ACC5BDF4F81E0888309
:101C1000DF91CF910895FC01EC5BFF4F108240E013
:101C200050E060E070E00C94C40DCF93DF93EC01C2
:101C3000FC01EC5BFF4F8081882379F0CE010E948C
:101C4000830BCE010E94100D4E855F856C857D85CE
:101C5000CE01DF91CF910C94C40DDF91CF91089507
:101C6000DC01ED91FC910190F081E02D0994CF937E
:101C7000C82F61E370E08EE396E00E94300E6C2F77
:101C8000772767FD70958EE396E0CF910C94300E28
:101C9000CF93C82F61E470E08EE396E00E94300E8F
:101CA0006C2F772767FD70958EE396E0CF910C94AB
:101CB000300ECF93C82F61E770E08EE396E00E946C
:101CC000300E6C2F772767FD70958EE396E0CF91ED
:101CD0000C94300E26E040E855E260E070E08EE3C0
:101CE00096E00C941F3020E04BE062E08CE792E03D
:101CF0000C94AD278CE792E00C94AE28EF920F93F2
:101D00001F93CF93DF93CDB7DEB760970FB6F894EC
:101D1000DEBF0FBECDBF8EE396E00E943C2F892B25
:101D200009F403C28EE396E00E94552F992783326F
:101D3000910509F4C7C03CF58131910509F4E3C070
:101D40008CF48230910509F47AC024F4019709F4E7
:101D500060C0EBC18330910509F445C0409709F498
:101D6000BBC0E3C18032910509F47CC024F44297E2
:101D700009F4CCC0DAC18132910509F487C0829799
:101D800009F4A0C0D2C18234910509F49BC194F436
:101D90008333910509F46EC124F4C29709F47EC11E
:101DA000C4C18433910509F4C1C08034910509F49C
:101DB000A9C1BBC18036910509F497C12CF48035C7
:101DC000910509F47FC0B1C18037910509F496C12E
:101DD0008038910509F0A9C181E193E00E940A1DB4
:101DE0000E945816A2C145E050E0BE016F5F7F4FD0
:101DF0008EE396E00E948C31059709F096C1ED8044
:101E00000C812B814A81698181E193E00E94C7198D
:101E10008CC145E050E0BE016F5F7F4F8EE396E0DE
:101E20000E948C31059709F080C1ED800C812B81D7
:101E30004A81698181E193E00E947F1676C142E088
:101E400050E0BE016F5F7F4F8EE396E00E948C31C1
:101E5000029709F06AC149816A8181E193E00E9499
:101E6000AF1D63C143E050E0BE016F5F7F4F8EE363
:101E700096E00E948C31039709F057C12B814A816B
:101E8000698188E992E00E94D9124FC141E050E097
:101E9000BE016F5F7F4F8EE396E00E948C31019709
:101EA00009F043C16981161644F4772767FD7095E0
:101EB00088E992E00E941D1138C188E992E00E94F1
:101EC000271133C141E050E0BE016F5F7F4F8EE3C9
:101ED00096E00E948C3129C142E050E0BE016F5F64
:101EE0007F4F8EE396E00E948C31029709F01DC16E
:101EF0008A81882321F089810E94B11516C18981C8
:101F00000E94E91512C10E9427160FC141E050E05E
:101F1000BE016F5F7F4F8EE396E00E948C31019788
:101F200009F003C189810E947A15FFC083E00E94F5
:101F3000FF2D97FD0396BC0175956795759567957F
:101F400080EA90E00E942D3682E00E94FF2D97FDEE
:101F50000396BC01759567957595679580EB90E044
:101F60000E942D3681E00E94FF2D97FD0396BC0153
:101F7000759567957595679580EC90E00E942D3674
:101F800080E00E94FF2D97FD0396BC017595679533
:101F90007595679580ED90E00E942D3680EA90E07F
:101FA0000E941B3624E0829FC0011124BC018827B7
:101FB00077FD8095982F0E94E03269837A838B8326
:101FC0009C8380EB90E00E941B36E4E08E9FC00172
:101FD0001124BC01882777FD8095982F0E94E0325C
:101FE0006D837E838F83988780EC90E00E941B3600
:101FF000F4E08F9FC0011124BC01882777FD8095F4
:10200000982F0E94E03269877A878B879C8780EDC2
:1020100090E00E941B3624E0829FC0011124BC0185
:10202000882777FD8095982F0E94E0326D877E8704
:102030008F87988B8E010F5F1F4F43E652E02FE092
:1020400032E0BE016F5E7F4FF80181919191A191C5
:10205000B1918F01FA0181939193A193B193AF0153
:10206000F90181939193A193B1939F0106171707EB
:1020700059F75BC041E050E0BE016F5F7F4F8EE3D8
:1020800096E00E948C31019709F04FC081E0998160
:10209000911101C080E08093860147C041E050E08B
:1020A000BE016F5F7F4F8EE396E00E948C310197F7
:1020B000E1F58981992787FD90959093750180932B
:1020C000740133C041E050E0BE016F5F7F4F8EE38B
:1020D00096E00E948C31019741F581E09981911140
:1020E00001C080E08093280520C088E992E00E942A
:1020F0004F158FE092E00E94F10A17C082E00E9423
:10210000590E13C041E050E0BE016F5F7F4F8EE378
:1021100096E00E948C31019741F489818F3F19F438
:102120000E94450602C00E94B50560960FB6F8945D
:10213000DEBF0FBECDBFDF91CF911F910F91EF900A
:1021400008958091DC02811104C08091DD02882312
:1021500099F08091D0029091D102A091D202B091D9
:10216000D3020196A11DB11D8093D0029093D1029C
:10217000A093D202B093D30208958091DC02811122
:1021800004C08091DD02882399F08091D40290915F
:10219000D502A091D602B091D7020196A11DB11D22
:1021A0008093D4029093D502A093D602B093D70225
:1021B0000895CF93DF93EC0161E0888D0E94A42EF7
:1021C00061E08A8D0E94A42E61E08C8D0E94A42E75
:1021D00061E08E8D0E94A42E43E050E061EA70E140
:1021E00088A10E948E2C43E050E06DEB70E18AA143
:1021F0000E948E2CFE01EC5BFF4F108280E090E08D
:10220000A0EAB1E48CA39DA3AEA3BFA318A619A610
:102210001AA61BA61CA61DA61EA61FA618AA19AAAA
:102220001AAA1BAA40E050E060E272E44CAB5DAB3E
:102230006EAB7FABDF91CF910895FC01E65BFF4F62
:102240002081222319F0369721E0208308958C5BAA
:102250009F4FFC01108208954F925F926F927F9280
:102260008F929F92AF92BF92CF92DF92EF92FF92A6
:102270000F931F93CF93DF93EC014B015A01680139
:10228000790197FE04C0662777276819790988279E
:1022900077FD8095982F0E94E032A70196010E9459
:1022A000DC312B013C0120E030E0A9010E944132E9
:1022B00087FD0FC020E030E04FE753E4C301B201D7
:1022C0000E949033181644F0C301B2010E94AD324F
:1022D00005C060E070E002C06FEF70E0888D0E9482
:1022E0001C2E1814190414F461E001C060E08C8DF8
:1022F0000E94DD2EB501B7FE04C0662777276A1954
:102300007B09882777FD8095982F0E94E032A701EE
:1023100096010E94DD316B017C0120E030E0A901D3
:102320000E94413287FD0FC020E030E04FE753E4C8
:10233000C701B6010E949033181644F0C701B601D8
:102340000E94AD3205C060E070E002C06FEF70E047
:102350008A8D0E941C2E1A141B0414F461E001C023
:1023600060E08E8DDF91CF911F910F91FF90EF90E4
:10237000DF90CF90BF90AF909F908F907F906F90A5
:102380005F904F900C94DD2E4F925F926F927F92F0
:102390008F929F92AF92BF92CF92DF92EF92FF9275
:1023A0000F931F93CF93DF93EC012A013B01FC01B4
:1023B000EC5BFF4F8081882341F1C884D984EA8493
:1023C000FB8420E030E0A901C701B6010E94413240
:1023D0008823D9F08C849D84AE84BF8420E030E0D3
:1023E000A901C501B4010E944132882371F0C501E1
:1023F000B4010E94AD324B015C01C701B6010E94DD
:10240000AD3293018201A40112C06C857D858E8559
:102410009F850E94AD326B017C01688579858A8534
:102420009B850E94AD3200E010E09801A601CE012C
:102430000E942C11DF91CF911F910F91FF90EF908F
:10244000DF90CF90BF90AF909F908F907F906F90D4
:102450005F904F9008958F929F92AF92BF92CF92CC
:10246000DF92EF92FF92CF93DF93EC01C888D98877
:10247000EA88FB8888849984AA84BB84A501940196
:10248000C701B6010E9490331816C4F4288139811F
:102490004A815B81C501B4010E94DD319B01AC0121
:1024A000688779878A879B87C701B6010E94413276
:1024B00087FF04C0C886D986EA86FB86888499840B
:1024C000AA84BB84A5019401C701B6010E944132D0
:1024D00087FF18C0288139814A815B81C501B40119
:1024E0000E94DC319B01AC01688779878A879B87D2
:1024F000C701B6010E949033181624F4C886D98605
:10250000EA86FB86CC88DD88EE88FF888C849D84F3
:10251000AE84BF84A5019401C701B6010E94903327
:102520001816C4F42C813D814E815F81C501B40130
:102530000E94DD319B01AC016C877D878E879F8770
:10254000C701B6010E94413287FF04C0CC86DD86F8
:10255000EE86FF868C849D84AE84BF84A5019401A1
:10256000C701B6010E94413287FF18C02C813D810E
:102570004E815F81C501B4010E94DC319B01AC0139
:102580006C877D878E879F87C701B6010E94903335
:10259000181624F4CC86DD86EE86FF86DF91CF9177
:1025A000FF90EF90DF90CF90BF90AF909F908F9073
:1025B00008958F929F92AF92BF92CF92DF92EF9247
:1025C000FF920F931F93CF93DF931F92CDB7DEB788
:1025D0008C01A42E862E912CB401660F771F7727CD
:1025E000882777FD8095982F29830E94E0326B0120
:1025F0007C01F801608B718B828B938BB12CB501C0
:10260000660F771F7727882777FD8095982F0E9480
:10261000E032F801648B758B868B978B880C892C44
:10262000881C99082981892841F4F7FAF094F7F871
:10263000F094C08AD18AE28AF38AAA0CAB2CAA1C35
:10264000BB08AB2841F4DC01CB01B058F801848B06
:10265000958BA68BB78B21111AC0F80110821182BD
:102660001282138280899189A289B3898087918798
:10267000A287B3871482158216821782848995896E
:10268000A689B78984879587A687B78749C0622FAF
:1026900070E080E090E00E94DE324B015C01F801C6
:1026A0002085318542855385608971898289938926
:1026B0000E94DC31A50194010E9445326B017C012E
:1026C00020E030E0A9010E949033181624F0F7FAB8
:1026D000F094F7F8F094F801C082D182E282F3829C
:1026E00024853585468557856489758986899789C6
:1026F0000E94DC31A50194010E9445326B017C01EE
:1027000020E030E0A9010E949033181624F0F7FA77
:10271000F094F7F8F094F801C482D582E682F7824B
:10272000F80114AE15AE16AE17AE14A615A616A671
:1027300017A6E05CFF4F10821182128213820F9065
:10274000DF91CF911F910F91FF90EF90DF90CF908D
:10275000BF90AF909F908F9008952F923F924F928D
:102760005F926F927F928F929F92AF92BF92CF9221
:10277000DF92EF92FF920F931F93CF93DF93CDB72A
:10278000DEB72E970FB6F894DEBF0FBECDBF1C018B
:10279000FC01EC5BFF4F8081882391F0F101E05C4C
:1027A000FF4F80819181A281B3810196A11DB11D4E
:1027B00080839183A283B3834997A105B10584F4F3
:1027C000D101D8961D921D921D921C92DB97F101AA
:1027D00014AE15AE16AE17AEC12CD12C7601D7C0F3
:1027E000D101D8966D917D918D919C91DB97DC966E
:1027F0000D911D912D913C91DF97601B710B820B08
:10280000930BF10114AE15AE16AE17AE0E94E03276
:102810004B015C01D101D496CD90DD90ED90FC9000
:10282000D797D701C601B0588D839E83AF83B887F1
:10283000D10194968D919D910D90BC91A02D898789
:102840009A87AB87BC879C01AD016D817E818F81AA
:1028500098850E9445322B013C019B01AC01C501CA
:10286000B4010E94413287FD12C029853A854B850B
:102870005C85C701B6010E9445322B013C019B01DA
:10288000AC01C501B4010E94903318161CF4C301B9
:10289000B20102C0C501B4010E94AD32F10160AFC6
:1028A00071AF82AF93AF0E94E0322B013C01D101A6
:1028B00098962D913D914D915C919B970E949433F8
:1028C000F10124A535A546A557A50E94DD31162F97
:1028D0007E878D87092FD101D0968D909D90AD90E8
:1028E000BC90D397D501C401B05889839A83AB8338
:1028F000BC839C01AD01612F8D85902F0E944132D8
:1029000087FD0FC0A5019401612F7E858D85902FD5
:102910000E94903318165CF4182D9E86AD860B2D00
:1029200006C019819A819E87AB81AD870C81812F6A
:102930009E85AD85B02FF10184A795A7A6A7B7A75F
:10294000A301920169857A858B859C850E949433C9
:10295000212F3E854D85502F0E94DD318B015C017A
:102960002D813E814F8158850E94413287FD0BC0E9
:10297000A7019601B801C5010E94903318163CF0DA
:102980006801750104C0CD80DE80EF80F884C70146
:10299000B6012E960FB6F894DEBF0FBECDBFDF9105
:1029A000CF911F910F91FF90EF90DF90CF90BF904C
:1029B000AF909F908F907F906F905F904F903F90DF
:1029C0002F900895CF92DF92EF92FF920F931F9373
:1029D000CF93DF93EC010E942B128E010B5B1F4FF4
:1029E000F8018081811110C0CE010E94AD13AB01AE
:1029F000BC01CE01DF91CF911F910F91FF90EF901D
:102A0000DF90CF900C94C4110E94622DFE01EA5B0E
:102A1000FF4FC080D180E280F3806C197D098E0960
:102A20009F09683E73408105910580F1F80110828D
:102A300060E070E0888D0E941C2E60E070E08A8D5E
:102A40000E941C2E8CAD9DADAEADBFADFE01E65B10
:102A5000FF4F86309105A105B105BCF048AD59ADD9
:102A60006AAD7BAD463051056105710574F0841B7C
:102A7000950BA60BB70B0996A11DB11D4397A10598
:102A8000B10518F481E0808301C01082DF91CF91FD
:102A90001F910F91FF90EF90DF90CF900895CF930B
:102AA000DF93EC010E94622DFE01EA5BFF4F608321
:102AB000718382839383319781E0808366E970E03C
:102AC000888D0E941C2E61E08C8D0E94DD2E66E9AF
:102AD00070E08A8D0E941C2E60E08E8DDF91CF9178
:102AE0000C94DD2E40E855E260E070E085EE92E067
:102AF0000C94DD27CF93DF93CDB7DEB728970FB6C1
:102B0000F894DEBF0FBECDBFBE016F5F7F4F98E070
:102B1000FB0111929A95E9F79EE799839FEF9A83BB
:102B200096E09B839C839FEE98878F83E091E502DC
:102B3000F091E6020280F381E02D48E050E085EE5E
:102B400092E0099564E170E080E090E00E94912DB0
:102B500028960FB6F894DEBF0FBECDBFDF91CF91A0
:102B60000895CF93DF93CDB7DEB728970FB6F894CB
:102B7000DEBF0FBECDBF98E0BE016F5F7F4FFB0190
:102B8000292F11922A95E9F72EE729832FEF2A831F
:102B900026E02B839C839FEE98878F83E091E5024C
:102BA000F091E6020280F381E02D48E050E085EEEE
:102BB00092E0099564E170E080E090E00E94912D40
:102BC00028960FB6F894DEBF0FBECDBFDF91CF9130
:102BD0000895CF93DF93CDB7DEB728970FB6F8945B
:102BE000DEBF0FBECDBF8093E302BE016F5F7F4F9C
:102BF00098E0FB0111929A95E9F79EE799839FEF80
:102C00009A8396E09B8393E09C839FEE98878F83C3
:102C1000E091E502F091E6020280F381E02D48E0C8
:102C200050E085EE92E0099564E170E080E090E08C
:102C30000E94912D28960FB6F894DEBF0FBECDBF2F
:102C4000DF91CF9108958091E4020C94E915CF9320
:102C5000DF93CDB7DEB728970FB6F894DEBF0FBE6F
:102C6000CDBF88E0EEE1F1E0DE01119601900D921A
:102C70008A95E1F7E091E502F091E6020280F381A6
:102C8000E02D48E050E0BE016F5F7F4F85EE92E09F
:102C9000099564E170E080E090E00E94912D289613
:102CA0000FB6F894DEBF0FBECDBFDF91CF91089570
:102CB0006091E30280E490E00C942D368093E4026E
:102CC000682F80E490E00C942D3680E490E00E9420
:102CD0001B368093E402089520E04BE062E085EE2D
:102CE00092E00C94AD2785EE92E00C94AE2881E042
:102CF00093E00E94FC2881E795E00C94972A2F929C
:102D00003F924F925F926F927F928F929F92AF927B
:102D1000BF92CF92DF92EF92FF920F931F93CF93C8
:102D2000DF93CDB7DEB7A3970FB6F894DEBF0FBE23
:102D3000CDBFE9829BA38AA34C01212C312C862F85
:102D400090E09D838C83842F90E0A0E0B0E08E83A0
:102D50009F83A887B987822F90E0A0E0B0E08A87A0
:102D60009B87AC87BD87802F90E0A0E0B0E08E8786
:102D70009F87A88BB98B842F90E0A0E0B0E08A8B6E
:102D80009B8BAC8BBD8B8E2D90E0A0E0B0E08E8B4A
:102D90009F8BA88FB98F822F90E0A0E0B0E08A8F40
:102DA0009B8FAC8FBD8F802F90E0A0E0B0E08E8F26
:102DB0009F8FA8A3B9A38C819D81022C02C09595F9
:102DC00087950A94E2F780FFE9C0CAA0DBA092E9E8
:102DD000C91A9EEFD90A6E817F81888599850E94E4
:102DE000DE32D6016D937D938D939C931397EAA069
:102DF000FBA0BEE8EB1ABEEFFB0A6A857B858C85DB
:102E00009D850E94DE32F701608371838283938304
:102E10006E857F85888999890E94DE32EAA1FBA1AF
:102E2000EA58FE4F6083718382839383F401EA54EE
:102E3000FE4F2AA13BA122523F4F59010AA11BA1DB
:102E40000E511F4FAAA1BBA1AA51BF4FBB83AA839A
:102E5000B981B11119C021E02083D6014D905D9058
:102E60006D907C90F5014082518262827382D7011D
:102E7000CD90DD90ED90FC90F801C082D182E2828D
:102E8000F382AA81BB8185C010826A897B898C8983
:102E90009D890E94E032F501208131814281538178
:102EA0000E94DC312B013C0120E030E0A9010E94AE
:102EB0009033181624F077FA709477F870946E892E
:102EC0007F89888D998D0E94DE326B017C01AAA0DA
:102ED000BBA0FAEDAF1AFEEFBF0A9B01AC01C30124
:102EE000B2010E944532D5016D937D938D939C93E1
:102EF00013976A8D7B8D8C8D9D8D0E94E032F80139
:102F000020813181428153810E94DC312B013C01BF
:102F100020E030E0A9010E949033181624F0C3018C
:102F2000B201905802C0C301B2010AA11BA1065D03
:102F30001E4FA70196010E944532D8016D937D93E3
:102F40008D939C9313976E8D7F8D88A199A10E947C
:102F5000E032EA81FB8120813181428153810E94EC
:102F6000DC312B013C0120E030E0A9010E949033CC
:102F7000181624F0C301B201905802C0C301B20177
:102F80000AA11BA1025D1E4FA70196010E944532B6
:102F9000D8016D937D938D939C931397BFEF2B1A5C
:102FA0003B0AEAA1FBA13C96FBA3EAA3FFEF8F1A21
:102FB0009F0A26E02216310409F0FDCEA3960FB633
:102FC000F894DEBF0FBECDBFDF91CF911F910F915F
:102FD000FF90EF90DF90CF90BF90AF909F908F9039
:102FE0007F906F905F904F903F902F9008952F9219
:102FF0003F924F925F926F927F928F929F92AF9289
:10300000BF92CF92DF92EF92FF920F931F93CF93D5
:10301000DF9300D000D01F92CDB7DEB74C019C01EA
:1030200022523F4F3D832C83A12CB12C14013AE452
:10303000231A3EEF330AD1018C91EC81FD81E057D8
:10304000FF4F0C811D810C561F4F2C813D8128564E
:103050003F4F3A832983882309F180819181A2819E
:10306000B381EC81FD8180839183A283B383F801D6
:1030700080819181A281B381EC81FD8184839583DC
:10308000A683B783F90180819181A281B381EC810C
:10309000FD8180879187A287B387E9C0AC81BD811C
:1030A0004D905D906D907C90C080D180E280F380E7
:1030B000A7019601C301B2010E94413287FF1FC0E0
:1030C000EC81FD81E85BFF4F20813181428153819A
:1030D000C301B2010E94DD31EC81FD816083718307
:1030E00082839383A70196010E94903318163CF4C3
:1030F000AC81BD81CD92DD92ED92FC921397EC8173
:10310000FD814080518062807380A7019601C301D8
:10311000B2010E9490331816FCF4EC81FD81E85B4B
:10312000FF4F2081318142815381C301B2010E944E
:10313000DC31AC81BD816D937D938D939C9313970E
:10314000A70196010E94413287FF06C0EC81FD81F4
:10315000C082D182E282F382AC81BD811496CD908F
:10316000DD90ED90FC901797F801408051806280CF
:103170007380A3019201C701B6010E94413287FF0B
:1031800020C0EC81FD81E45BFF4F208131814281D1
:103190005381C701B6010E94DD31AC81BD81149617
:1031A0006D937D938D939C931797A30192010E9439
:1031B0009033181634F4EC81FD8144825582668286
:1031C0007782AC81BD811496CD90DD90ED90FC901E
:1031D0001797A3019201C701B6010E9490331816F8
:1031E0000CF493C0AC81BD811896CD90DD90ED902C
:1031F000FC901B97E981FA81408051806280738046
:10320000A3019201C701B6010E94413287FF20C08D
:10321000EC81FD81E05BFF4F208131814281538150
:10322000C701B6010E94DD31EC81FD8160877187A5
:1032300082879387A30192010E949033181644F469
:10324000AC81BD8118964D925D926D927C921B97D8
:10325000EC81FD81C084D184E284F384A3019201D6
:10326000C701B6010E94903318160CF46FC0D1014B
:103270001C92EC81FD8160857185828593850E9419
:10328000AD32062FAC81BD8114966D917D918D91EB
:103290009C9117970E94AD32262FEC81FD816081B1
:1032A0007181828193812B830E94AD32462F2B81C5
:1032B000B50181E093E00E94CC29FFEFAF1ABF0A6D
:1032C0002FEF821A920A8C819D810C969D838C83AC
:1032D00096E0A916B10409F0A9CE0F900F900F90B7
:1032E0000F900F90DF91CF911F910F91FF90EF9072
:1032F000DF90CF90BF90AF909F908F907F906F9016
:103300005F904F903F902F900895EC81FD81E45B9A
:10331000FF4F2081318142815381C701B6010E9454
:10332000DC31EC81FD816483758386839783A301FF
:1033300092010E94413287FF55CFAC81BD81149626
:103340004D925D926D927C9217974CCFEC81FD81EE
:10335000E05BFF4F2081318142815381C701B6017B
:103360000E94DC31AC81BD8118966D937D938D9365
:103370009C931B97A30192010E94413287FF77CF54
:10338000EC81FD81408651866286738670CF2F92D4
:103390003F924F925F926F927F928F929F92AF92E5
:1033A000BF92CF92DF92EF92FF920F931F93CF9332
:1033B000DF93CDB7DEB7A0970FB6F894DEBF0FBE90
:1033C000CDBF9E2C98A38F8F1C01A12CB12C862FD2
:1033D00090E09A838983842F90E0A0E0B0E08B8313
:1033E0009C83AD83BE83822F90E0A0E0B0E08F830A
:1033F0009887A987BA87802F90E0A0E0B0E08B87FC
:103400009C87AD87BE87842F90E0A0E0B0E08F87D7
:10341000988BA98BBA8B8E2D90E0A0E0B0E08B8BBF
:103420009C8BAD8BBE8B822F90E0A0E0B0E08F8BA9
:10343000988FA98FBA8F802F90E0A0E0B0E08B8F9B
:103440009C8FAD8FBE8F8824839489819A810A2CAA
:1034500002C0959587950A94E2F780FFD7C0EF8C5C
:10346000F8A090E9E90EF11C6B817C818D819E8131
:103470000E94DE32D7016D937D938D939C931397B9
:103480000F8D18A10C561F4F6F81788589859A85FD
:103490000E94DE32F80160837183828393836B859F
:1034A0007C858D859E850E94DE32EF8DF8A1E856E1
:1034B000FF4F6083718382839383F101E852FF4F52
:1034C00091101AC08082D701CD90DD90ED90FC90D4
:1034D000EF8DF8A1C082D182E282F382D8010D91F2
:1034E0001D912D913C91048315832683378360873A
:1034F0007187828793878AC010826F8578898989CE
:103500009A890E94E032EF8DF8A1208131814281B9
:1035100053810E94DC312B013C0120E030E0A90105
:103520000E949033181624F077FA709477F870940C
:103530006B897C898D899E890E94DE326B017C01BA
:103540000F8D18A1085B1F4F9B01AC01C301B20195
:103550000E944532D8016D937D938D939C93139770
:103560006F89788D898D9A8D0E94E032EF8DF8A158
:1035700024813581468157810E94DC312B013C0139
:1035800020E030E0A9010E949033181624F0C30116
:10359000B201905802C0C301B2010F8D18A1045BA3
:1035A0001F4FA70196010E944532D8016D937D936C
:1035B0008D939C9313976B8D7C8D8D8D9E8D0E942A
:1035C000E032EF8DF8A120853185428553850E9438
:1035D000DC312B013C0120E030E0A9010E94903356
:1035E000181624F0C301B201905802C0C301B20101
:1035F0000F8D18A1005B1F4FA70196010E94453255
:10360000D8016D937D938D939C931397BFEFAB1A65
:10361000BB0AEF8DF8A13C96F8A3EF8FFFEF2F1AAE
:103620003F0A86E0A816B10409F00FCFA0960FB6A6
:10363000F894DEBF0FBECDBFDF91CF911F910F91E8
:10364000FF90EF90DF90CF90BF90AF909F908F90C2
:103650007F906F905F904F903F902F9008952F92A2
:103660003F924F925F926F927F928F929F92AF9212
:10367000BF92CF92DF92EF92FF920F931F93CF935F
:10368000DF9300D000D01F92CDB7DEB74C019D83F1
:103690008C8386E0A82EB12C140128ED220E311C5B
:1036A000D1018C91EC81FD81E057FF4F0C811D8190
:1036B0000C561F4F2C813D8128563F4F3A8329835A
:1036C000882309F180819181A281B381EC81FD8100
:1036D00080839183A283B383F80180819181A28149
:1036E000B381EC81FD8184839583A683B783F9013F
:1036F00080819181A281B381EC81FD818087918756
:10370000A287B387E9C0AC81BD814D905D906D907B
:103710007C90C080D180E280F380A7019601C30134
:10372000B2010E94413287FF1FC0EC81FD81E85B3E
:10373000FF4F2081318142815381C301B2010E9438
:10374000DD31EC81FD816083718382839383A701E6
:1037500096010E94903318163CF4AC81BD81CD9245
:10376000DD92ED92FC921397EC81FD8140805180B7
:1037700062807380A7019601C301B2010E94903359
:103780001816FCF4EC81FD81E85BFF4F208131814C
:1037900042815381C301B2010E94DC31AC81BD8101
:1037A0006D937D938D939C931397A70196010E942F
:1037B000413287FF06C0EC81FD81C082D182E28266
:1037C000F382AC81BD811496CD90DD90ED90FC909C
:1037D0001797F8014080518062807380A3019201A5
:1037E000C701B6010E94413287FF20C0EC81FD81F4
:1037F000E45BFF4F2081318142815381C701B601D3
:103800000E94DD31AC81BD8114966D937D938D93C3
:103810009C931797A30192010E949033181634F4D9
:10382000EC81FD814482558266827782AC81BD81C4
:103830001496CD90DD90ED90FC901797A301920126
:10384000C701B6010E94903318160CF497C0AC81E2
:10385000BD811896CD90DD90ED90FC901B97E9818D
:10386000FA814080518062807380A3019201C70178
:10387000B6010E94413287FF20C0EC81FD81E05BF0
:10388000FF4F2081318142815381C701B6010E94DF
:10389000DD31EC81FD816087718782879387A30189
:1038A00092010E949033181644F4AC81BD811896A1
:1038B0004D925D926D927C921B97EC81FD81C0844C
:1038C000D184E284F384A3019201C701B6010E946E
:1038D000903318160CF473C0D1011C92EC81FD8159
:1038E00060857185828593850E94AD32062FAC81FB
:1038F000BD8114966D917D918D919C9117970E9439
:10390000AD32262FEC81FD816081718182819381AE
:103910002B830E94AD32462F2B81B50181E093E0CD
:103920000E94CC29FFEF8F1A9F0A2C813D81245FD2
:103930003F4F3D832C833FEFA31AB30A8CE0A816B8
:10394000B10409F0A9CE81E093E00F900F900F90A1
:103950000F900F90DF91CF911F910F91FF90EF90FB
:10396000DF90CF90BF90AF909F908F907F906F909F
:103970005F904F903F902F900C940929EC81FD812E
:10398000E45BFF4F2081318142815381C701B60141
:103990000E94DC31EC81FD8164837583868397838B
:1039A000A30192010E94413287FF51CFAC81BD81BA
:1039B00014964D925D926D927C92179748CFEC8150
:1039C000FD81E05BFF4F2081318142815381C7013E
:1039D000B6010E94DC31AC81BD8118966D937D9358
:1039E0008D939C931B97A30192010E94413287FF04
:1039F00073CFEC81FD8140865186628673866CCFE1
:103A0000CF93DF93EC010E94F717CE01DF91CF91A6
:103A10000C942F1BAF92BF92CF92DF92EF92FF9246
:103A20000F931F93CF93DF937C018C01EC01C12C8A
:103A3000D12C5E0180E3A81A8EEFB80AF801E25992
:103A4000FE4F60817181828193810E94B232F501C3
:103A500060835E01FFE2AF1AFEEFBF0AF801EE5885
:103A6000FE4F60817181828193810E94B232F501A3
:103A700060835E01FEE2AF1AFEEFBF0AF801EA586A
:103A8000FE4F60817181828193810E94B232F50183
:103A900060835E01F2E4AF1AFEEFBF0AF801E0575F
:103AA000FF4F60817181828193810E94B232F50162
:103AB00060835E01F1E4AF1AFEEFBF0AF801EC5635
:103AC000FF4F60817181828193810E94B232F50142
:103AD00060835E01F0E4AF1AFEEFBF0AF801E8561A
:103AE000FF4F60817181828193810E94B232F50122
:103AF0006083FFEFCF1ADF0A045F1F4F239686E033
:103B0000C816D10409F095CFF701EE51FE4FD70149
:103B1000A354BE4F8C918083319611978C918083F2
:103B200046E250E060E570E0C70182549E4FDF91AD
:103B3000CF911F910F91FF90EF90DF90CF90BF90AA
:103B4000AF900C94233623E04DE06CE070E081E010
:103B500093E00C94B52881E093E00C94ED28CF938A
:103B6000DF93C62FD42FFC01E354FE4F60833197BF
:103B7000408360EC70E081E795E00E94AB2AC2FDD3
:103B800002C060E001C064E0C1FD6160C0FD626030
:103B900081E795E00E94582A6D2F81E795E00E9409
:103BA000582A81E795E0DF91CF910C94C02A46E234
:103BB00050E060E570E082549E4F0E940B364091C9
:103BC000F4046091F30481E193E00C94AF1D9091B3
:103BD000CF04909306059091D004909305059091A1
:103BE000D104909304059091D8049093030590918B
:103BF000D904909302059091DA0490930105909175
:103C0000E104909300059091E2049093FF04909159
:103C1000E3049093FE0480931C010E94622D609344
:103C20000D0570930E0580930F05909310058091FC
:103C30001C01813041F128F0823091F0833019F17C
:103C4000089584E190E0A0E0B0E0809309059093AE
:103C50000A05A0930B05B0930C058FEF90E00EC002
:103C600084E190E0A0E0B0E08093090590930A051C
:103C7000A0930B05B0930C058CE390E0909308059E
:103C800080930705089584E190E0A0E0B0E0809380
:103C9000090590930A05A0930B05B0930C051092AB
:103CA0000805109207050895CF92DF92EF92FF92D8
:103CB0009B0168E671E00E940B34821B930B97FF17
:103CC00003C0919581959109BC01882777FD809566
:103CD000982F0E94E0326B017C0120E030E044E349
:103CE00053E40E94413287FF07C020E030E044E304
:103CF00053E4C701B6010CC0A701960160E070E073
:103D000084EB93E40E94DC3120E030E044E353E4B0
:103D10000E9445326B017C0120E030E0A9010E9445
:103D2000413287FD11C020E030E040E85FE3C70189
:103D3000B6010E949033181654F4C12CD12C80E89F
:103D4000E82E8FE3F82E03C0C12CD12C7601C701D9
:103D5000B601FF90EF90DF90CF900895861B970BF0
:103D600097FF03C0919581959109883291058CF454
:103D700068E270E0681B790B882777FD8095982FA3
:103D80000E94E03220E030E040E252E40E944532FE
:103D9000089560E070E0CB0108954F925F926F92BA
:103DA0007F928F929F92AF92BF92CF92DF92EF92CB
:103DB000FF920F93CF93DF930E94622DC0900D0569
:103DC000D0900E05E0900F05F09010058090090549
:103DD00090900A05A0900B05B0900C056C197D0918
:103DE0008E099F09681579058A059B0508F4BCC5ED
:103DF000C80CD91CEA1CFB1CC0920D05D0920E0504
:103E0000E0920F05F092100580911C01813009F4B9
:103E100096C038F0823009F460C1833009F42AC3B7
:103E2000A3C58091070590910805BC016E5F7F4F87
:103E300070930805609307056F3F710541F03CF0F2
:103E40006E3F71405CF46CEF71E0681B790B882762
:103E500077FD8095982F0E94E03207C010920805E8
:103E60001092070560E070E0CB0120E030E04FE702
:103E700053E40E9445324B015C016091FE0470E006
:103E800080E090E00E94E032A50194010E9494330A
:103E90000E94B232062F6091FF0470E080E090E053
:103EA0000E94E032A50194010E9494330E94B23234
:103EB000C62F6091000570E080E090E00E94E03243
:103EC000A50194010E9494330E94B232462FE12C46
:103ED0002C2F6FEF81E193E00E947F166091040523
:103EE00070E080E090E00E94E032A50194010E9421
:103EF00094330E94B232062F6091050570E080E095
:103F000090E00E94E032A50194010E9494330E9447
:103F1000B232C62F6091060570E080E090E00E940A
:103F2000E032A50194010E9494330E94B232462FE0
:103F30002C2F67EF81E193E00E94C719E5C48091BF
:103F40000705909108050496883621E092072CF425
:103F5000909308058093070504C0109208051092FD
:103F60000705C12CD12CC0E0D0E088248394912C8B
:103F70006091070570910805C601845D9E4F0E94FF
:103F8000541E2B013C0154010C2E01C0AA0C0A94B2
:103F9000EAF76091FE0470E080E090E00E94E03279
:103FA000A30192010E9494330E94B232062F6091C5
:103FB000FF0470E080E090E00E94E032A3019201F3
:103FC0000E9494330E94B232F62E6091000570E098
:103FD00080E090E00E94E032A30192010E949433BD
:103FE0000E94B232462FE12C2F2D6A2D81E193E001
:103FF0000E947F166091070570910805C6010E9416
:10400000541E2B013C01C330D10569F560910105B7
:1040100070E080E090E00E94E032A30192010E94F3
:1040200094330E94B232062F6091020570E080E066
:1040300090E00E94E032A30192010E9494330E941A
:10404000B232F62E6091D80470E080E090E00E94D9
:10405000E032A30192010E9494330E94B232462FB3
:104060002F2D68E02DC06091040570E080E090E0A5
:104070000E94E032A30192010E9494330E94B23266
:10408000062F6091050570E080E090E00E94E0322C
:10409000A30192010E9494330E94B232F62E6091E5
:1040A000060570E080E090E00E94E032A3019201FA
:1040B0000E9494330E94B232462FE12C2F2D6A2D9C
:1040C00081E193E00E94C71921962CE3C20ED11C16
:1040D000C630D10509F04CCF47C4809107059091B7
:1040E00008050496883621E092072CF49093080581
:1040F0008093070504C0109208051092070598E602
:10410000892E99249394C1E0D0E0AA24A394B12CE1
:104110006091070570910805C4010E94541E6B014F
:104120007C016091FE0470E080E090E00E94E0324B
:10413000A70196010E9494330E94B232062F60912B
:10414000FF0470E080E090E00E94E032A701960159
:104150000E9494330E94B232762E6091000570E086
:1041600080E090E00E94E032A70196010E94943323
:104170000E94B232462FB5010C2E01C0660F0A9480
:10418000EAF7E12C272D81E193E00E947F1621962A
:104190002CE3820E911CC530D10509F0B9CF609196
:1041A00007057091080584EA91E00E94541E6B0196
:1041B0007C016091FE0470E080E090E00E94E032BB
:1041C000A70196010E9494330E94B232062F60919B
:1041D000FF0470E080E090E00E94E032A7019601C9
:1041E0000E9494330E94B232C62F6091000570E0A5
:1041F00080E090E00E94E032A70196010E94943393
:104200000E94B232462FE12C2C2F61E081E193E035
:104210000E947F16609107057091080580EE91E07D
:104220000E94541E6B017C016091FE0470E080E0EE
:1042300090E00E94E032A70196010E9494330E9410
:10424000B232062F6091FF0470E080E090E00E949F
:10425000E032A70196010E9494330E94B232C62F29
:104260006091000570E080E090E00E94E032A701DC
:1042700096010E9494330E94B232462FE12C2C2FDB
:1042800060E281E193E00E947F16812C912CA12CA9
:10429000B12CC1E0D0E06091070570910805C40120
:1042A0000E94541E6B017C0183E0A816B10471F5D5
:1042B0006091010570E080E090E00E94E032A7018B
:1042C00096010E9494330E94B232062F609102053B
:1042D00070E080E090E00E94E032A70196010E9429
:1042E00094330E94B232762E6091D80470E080E060
:1042F00090E00E94E032A70196010E9494330E9450
:10430000B232462FE12C272D68E032C060910405BF
:1043100070E080E090E00E94E032A70196010E94E8
:1043200094330E94B232062F6091050570E080E060
:1043300090E00E94E032A70196010E9494330E940F
:10434000B232762E6091060570E080E090E00E9427
:10435000E032A70196010E9494330E94B232462FA8
:10436000E12C272DBE010A2C01C0660F0A94EAF742
:1043700081E193E00E94C7192FEFA21AB20A8CE3E1
:10438000880E911C24E0A216B10409F084CF60913C
:104390000705709108058CE390E00E94541E6B01A4
:1043A0007C016091040570E080E090E00E94E032C2
:1043B000A70196010E9494330E94B232062F6091A9
:1043C000050570E080E090E00E94E032A7019601D0
:1043D0000E9494330E94B232C62F6091060570E0AD
:1043E00080E090E00E94E032A70196010E949433A1
:1043F0000E94B232462FE12C2C2F60E281E193E043
:104400000E94C719609107057091080588E790E040
:104410000E94541E6B017C016091040570E080E0F5
:1044200090E00E94E032A70196010E9494330E941E
:10443000B232062F6091050570E080E090E00E94A6
:10444000E032A70196010E9494330E94B232C62F37
:104450006091060570E080E090E00E94E032A701E4
:1044600096010E9494330E94B232462FE12C2C2FE9
:1044700060E176C2809107059091080502968E361C
:1044800091052CF4909308058093070504C01092C1
:10449000080510920705609107057091080588E2EC
:1044A00090E00E94AE1E4B015C016091FE0470E042
:1044B00080E090E00E94E032A50194010E949433D4
:1044C0000E94B232062F6091FF0470E080E090E01D
:1044D0000E94E032A50194010E9494330E94B232FE
:1044E000C62F6091000570E080E090E00E94E0320D
:1044F000A50194010E9494330E94B232462FE12C10
:104500002C2F62E081E193E00E947F166091040508
:1045100070E080E090E00E94E032A50194010E94EA
:1045200094330E94B232062F6091050570E080E05E
:1045300090E00E94E032A50194010E9494330E9411
:10454000B232C62F6091060570E080E090E00E94D4
:10455000E032A50194010E9494330E94B232462FAA
:104560002C2F61E081E193E00E94C719609107055B
:104570007091080582E390E00E94AE1E4B015C0141
:104580006091FE0470E080E090E00E94E032A501BE
:1045900094010E9494330E94B232062F6091FF046E
:1045A00070E080E090E00E94E032A50194010E945A
:1045B00094330E94B232C62F6091000570E080E013
:1045C00090E00E94E032A50194010E9494330E9481
:1045D000B232462F2C2F61E081E193E00E947F16DA
:1045E0006091FE0470E080E090E00E94E032A5015E
:1045F00094010E9494330E94B232062F6091FF040E
:1046000070E080E090E00E94E032A50194010E94F9
:1046100094330E94B232C62F6091000570E080E0B2
:1046200090E00E94E032A50194010E9494330E9420
:10463000B232462F2C2F64E081E193E00E947F1676
:104640006091040570E080E090E00E94E032A501F6
:1046500094010E9494330E94B232062F60910505A6
:1046600070E080E090E00E94E032A50194010E9499
:1046700094330E94B232C62F6091060570E080E04C
:1046800090E00E94E032A50194010E9494330E94C0
:10469000B232462F2C2F62E081E193E00E94C719CD
:1046A0006091040570E080E090E00E94E032A50196
:1046B00094010E9494330E94B232062F6091050546
:1046C00070E080E090E00E94E032A50194010E9439
:1046D00094330E94B232C62F6091060570E080E0EC
:1046E00090E00E94E032A50194010E9494330E9460
:1046F000B232462F2C2F60E281E193E00E94C7196D
:1047000060910705709108058CE390E00E94AE1E51
:104710004B015C016091FE0470E080E090E00E943B
:10472000E032A50194010E9494330E94B232062F18
:104730006091FF0470E080E090E00E94E032A5010B
:1047400094010E9494330E94B232C62F60910005FA
:1047500070E080E090E00E94E032A50194010E94A8
:1047600094330E94B232462F2C2F68E081E193E00F
:104770000E947F166091FE0470E080E090E00E944D
:10478000E032A50194010E9494330E94B232062FB8
:104790006091FF0470E080E090E00E94E032A501AB
:1047A00094010E9494330E94B232C62F609100059A
:1047B00070E080E090E00E94E032A50194010E9448
:1047C00094330E94B232462F2C2F60E281E193E0B5
:1047D0000E947F166091040570E080E090E00E94E6
:1047E000E032A50194010E9494330E94B232062F58
:1047F0006091050570E080E090E00E94E032A50144
:1048000094010E9494330E94B232C62F6091060533
:1048100070E080E090E00E94E032A50194010E94E7
:1048200094330E94B232462F2C2F64E081E193E052
:104830000E94C7196091040570E080E090E00E943A
:10484000E032A50194010E9494330E94B232062FF7
:104850006091050570E080E090E00E94E032A501E3
:1048600094010E9494330E94B232C62F60910605D3
:1048700070E080E090E00E94E032A50194010E9487
:1048800094330E94B232462F2C2F60E181E193E0F5
:104890000E94C719609107057091080586E490E0B1
:1048A0000E94AE1E4B015C016091FE0470E080E04E
:1048B00090E00E94E032A50194010E9494330E948E
:1048C000B232062F6091FF0470E080E090E00E9419
:1048D000E032A50194010E9494330E94B232C62FA7
:1048E0006091000570E080E090E00E94E032A50158
:1048F00094010E9494330E94B232462F2C2F60E123
:1049000081E193E00E947F166091010570E080E0F4
:1049100090E00E94E032A50194010E9494330E942D
:10492000B232062F6091020570E080E090E00E94B4
:10493000E032A50194010E9494330E94B232C62F46
:104940006091D80470E080E090E00E94E032A50120
:1049500094010E9494330E94B232462F2C2F68E0BB
:1049600081E193E00E94C719DF91CF910F91FF90F1
:10497000EF90DF90CF90BF90AF909F908F907F90FF
:104980006F905F904F900895EF920F938FEF809309
:104990001C0144E6E42E0091FE042091FF044091A6
:1049A00000056FEF81E193E00E947F1600910405FE
:1049B000209105054091060567EF81E193E00E9493
:1049C000C71900910105209102054091D80468E0C3
:1049D00081E193E00E94C7190F91EF900895CF9362
:1049E000DF93EC0161E08D810E94A42E61E08F8154
:1049F0000E94A42E60E089850E94A42E61E08D8132
:104A00000E94DD2E61E08F810E94DD2EE8E6F0E05D
:104A1000808184608083EDE6F0E08081806880831F
:104A2000DF91CF9108951F920F920FB60F9211242C
:104A30008F939F93AF93BF93EF93FF93EDE1F5E0D7
:104A400080819181A281B3810196A11DB11D8083D6
:104A50009183A283B383FF91EF91BF91AF919F9117
:104A60008F910F900FBE0F901F901895FF920F938C
:104A70001F93CF93DF93EC018091150581110DC039
:104A80000E94622D609311057093120580931305A7
:104A90009093140581E080931505188219821A827B
:104AA0001B8284E1F82E08E110E060E08D810E9415
:104AB000DD2E60E08F810E94DD2E88E090E00E9474
:104AC000B92D61E08D810E94DD2E61E08F810E9411
:104AD000DD2E88E090E00E94B92D0150110929F7E0
:104AE00088EC90E00E94B92DFA94E9F6488159814A
:104AF0006A817B814A3051056105710574F1EE854B
:104B0000FF8581E090E009958C81811126C081E0CC
:104B10008C838B85882309F10E94622D00911105F9
:104B2000109112052091130530911405601B710B33
:104B3000820B930B683E73408105910570F00E94D3
:104B4000622D609311057093120580931305909365
:104B50001405EC85FD8581E00995488159816A81BC
:104B60007B814A30510561057105ACF4EE85FF8506
:104B700080E090E009958C81882369F01C828B8508
:104B8000882349F0EC85FD8580E0DF91CF911F916E
:104B90000F91FF900994DF91CF911F910F91FF909A
:104BA000089520916F053091700528173907B9F4E1
:104BB00090912D0580912E05981789F0E0912D0593
:104BC000F0E0E15DFA4F808120912D0530E02F5F0C
:104BD0003F4F2F73332720932D0590E008958FEFDB
:104BE0009FEF089520916F053091700528173907C0
:104BF00081F490912D0580912E05981751F0E09148
:104C00002D05F0E0E15DFA4F8081992787FD9095B1
:104C100008958FEF9FEF089520916F0530917005F3
:104C20002817390771F480912E0520912D0590E009
:104C3000805C9F4F821B910960E470E00E940B34FE
:104C4000089580E090E0089520916F0530917005FF
:104C50002817390739F48FB7F89410922E0510925F
:104C60002D058FBF0895DC015196ED91FC9152976F
:104C7000208150968C91809582238083089520E036
:104C800001972FEF8F3F9207D9F7089520916F0575
:104C9000309170052817390789F0FC01238D2E7F8C
:104CA000238F2FB7F89410922E0510922D05909314
:104CB000700580936F052FBF81E0089580E008950F
:104CC000EF92FF920F931F93CF93DF93EC018B8DA5
:104CD000EE85FF859D8581FF04C08081892329F4AD
:104CE00045C08081892309F041C08B899C890E943D
:104CF0003F2608E010E0EE24E394F12C8D899E8994
:104D00000E943F26EE85FF8580819D85892311F0D5
:104D1000FE2803C08E2D8095F822EE0C015011095B
:104D200069F78F89988D0E943F268B8D81FDF094C5
:104D300080912E0520912D0590E001968F73992783
:104D400030E08217930779F0E0912E05F0E0E15D05
:104D5000FA4FF08280912E0590E001968F7399278B
:104D600080932E0503C08B8D81608B8FDF91CF9157
:104D70001F910F91FF90EF900895611102C00C9464
:104D80003326DC015196ED91FC915297208150968B
:104D90008C91282B20830895DF92EF92FF920F933E
:104DA0001F93CF93DF93EC01E62E898D9A8D892B8B
:104DB00039F481E090E09B838A8380E090E049C0F1
:104DC000DFB6F8946B8D66956170CE010E94BD26AA
:104DD000898D9A8D05960E943F268B8D08E010E004
:104DE000FF24F39481FF17C08F2D8E2121F0CE0177
:104DF0000E94332604C061E0CE010E94BD26898D49
:104E00009A8D0E943F26FF0C0150110969F7CE01CF
:104E10000E94332617C08F2D8E2129F061E0CE012C
:104E20000E94BD2603C0CE010E943326898D9A8D33
:104E30000E943F26FF0C0150110969F761E0CE0185
:104E40000E94BD26DFBE898D9A8D0E943F2681E09B
:104E500090E0DF91CF911F910F91FF90EF90DF9045
:104E600008951F920F920FB60F9211242F933F9324
:104E70004F935F936F937F938F939F93AF93BF9362
:104E8000EF93FF9380916F0590917005009711F05B
:104E90000E946026FF91EF91BF91AF919F918F91FA
:104EA0007F916F915F914F913F912F910F900FBE26
:104EB0000F901F9018951F93CF93DF93EC01162F3F
:104EC00061E0812F0E94A42E6B8D6695617081E058
:104ED0006827812F0E94DD2E812F90E0FC01EA5689
:104EE000FE4FE491E88BFC01E655FE4FE491F0E0C3
:104EF000EE0FFF1FE853FE4F859194919A8B898B9B
:104F0000DF91CF911F9108951F93CF93DF93EC0111
:104F1000162F60E0812F0E94A42E8B8D81FD04C08E
:104F200061E0812F0E94DD2E1C87812F90E0FC0123
:104F3000EA56FE4FE491ED87FC01E655FE4FE49101
:104F4000F0E0EE0FFF1FE254FE4F859194919F8792
:104F50008E87DF91CF911F910895FF920F931F933A
:104F6000CF93DF93EC01F62E522F1B821A8208EEAC
:104F700013E020E030E00C831D832E833F838AE220
:104F800091E0998388831C8A1B8A1E8A1D8A188E49
:104F90001F8A1A8E198E8B8D8E7F50FB81F98B8F15
:104FA000642FCE010E945B276F2DCE01DF91CF9140
:104FB0001F910F91FF900C9484270F931F93CF9311
:104FC000DF93EC011A8E198E188E1F8A1E8A1D8A95
:104FD000A6EEB0E080E090E0FD01059115912591ED
:104FE0003491041715072607370709F031C02CE064
:104FF000289FF001299FF00D1124E651FF4F2591C4
:1050000034913C8B2B8B2CE0289FF001299FF00DD5
:105010001124E451FF4F259134913E8B2D8B2CE0D0
:10502000289FF001299FF00D1124E251FF4F259197
:105030003491388F2F8B2CE0289FF001299FF00DA1
:105040001124E051FF4F859194919A8F898F08C068
:1050500001961C968D30910509F0BECF1C8A1B8AE3
:105060008F89988D892B09F443C08C858631E0F5B2
:1050700020916800883050F091E08E3008F490E084
:1050800081E001C0880F9A95EAF701C084E0822B85
:10509000809368002C85283038F02E3040F026317F
:1050A00048F0E0E0F0E008C0EDE6F0E005C0EBE637
:1050B000F0E002C0ECE6F0E03081283030F481E02E
:1050C00001C0880F2A95EAF70DC0822F90E02E309C
:1050D00010F4089701C00E9791E001C0990F8A95CE
:1050E000EAF7892F832B8083898D9A8D0E943F2632
:1050F000CE01DF91CF911F910F910C944626FC01B8
:105100004485463150F5483028F04E3030F4EBE617
:10511000F0E005C0EDE6F0E002C0ECE6F0E0508122
:10512000483040F481E090E0042E01C0880F0A94DA
:10513000EAF710C0242F30E04E3018F4285031091F
:1051400002C02E50310981E090E0022E01C0880F8C
:105150000A94EAF780958523808308952AE231E056
:10516000FC01318320830C947F280F931F93CF93EE
:10517000DF93EC01798368838B01000F111F060F09
:10518000171F1B830A832C834D8350E0FA01E655D9
:10519000FE4FE491F0E0EE0FFF1FE853FE4F8591C4
:1051A00094919E878D87FA01EA56FE4F44914F876E
:1051B000C8010E94803498878F83009749F0A80126
:1051C00060E070E0DF91CF911F910F910C94043655
:1051D000DF91CF911F910F910895CF93DF93EC0151
:1051E0008F819885009711F00E94183560E08D81BD
:1051F000DF91CF910C94A42ECF93DF93EC0161E06B
:105200008D810E94A42E60E08D81DF91CF910C945E
:10521000DD2ECF92DF92EF92FF920F931F93CF93E9
:10522000DF93CDB7DEB729970FB6F894DEBF0FBE78
:10523000CDBF8C01DC0117968D919C911897892B1D
:1052400009F49BC00E946E2DF801C184D284E384CE
:10525000F4846C197D098E099F09623371058105FB
:10526000910580F3F894828193819A838983A78141
:10527000B0857D01EFEFEE1AFE0A8C918987D80187
:1052800014969C9114971D960D90BC91A02DF80139
:10529000878591FF2EC09C91982B98879C91809533
:1052A00089238F838F818E8388E08D8358856F81DA
:1052B00049853D812E8189819A81F7015C9347FD63
:1052C000252F3A952C93262F39F0441F00C000005B
:1052D0006C93000000C0F2CF38E041916C93000065
:1052E000019761F7F801B687A58749873D832E832B
:1052F00038C09C91982B98879C91809589238F83A7
:105300008F818C8388E08B8358856F8149853B81B1
:105310002C8189819A81F7015C9347FD252F00C07C
:1053200000C02C9300C000C000C000C000C06C933F
:105330000000262F3A9541F0441F000000C000C035
:1053400000C000C000C0E8CF38E0419100C06C93BD
:1053500000C0019709F7F801B687A58749873B8305
:105360002C839A83898378940E946E2DD801199694
:105370006D937D938D939C931C9729960FB6F8940B
:10538000DEBF0FBECDBFDF91CF911F910F91FF9078
:10539000EF90DF90CF9008950F931F93DC018D91D4
:1053A0009C9111976817790740F516968C9116977E
:1053B000882361F0489FA0011124452F289F900168
:1053C0001124232F089F80011124012FCB01880F66
:1053D000991F860F971F1796ED91FC911897E80F6C
:1053E000F91F14968C91DF01129680FF03C0208371
:1053F000418302C0408321830C931F910F91089534
:105400008091A10590E02091A205821B9109089549
:105410002091A2058091A105281750F4E22FF0E019
:10542000ED55FA4F808190E02F5F2093A2050895FB
:105430008FEF9FEF0895E091A2058091A105E817F5
:1054400030F4F0E0ED55FA4F808190E008958FEF51
:105450009FEF08950895CF92DF92EF92FF920F93FE
:105460001F93CF93DF937C01CB018A0120917D05AF
:10547000222389F0EB016B01C40ED51ECC15DD058E
:1054800069F06991D701ED91FC910190F081E02DD7
:10549000C7010995F3CF642F0E94382BC801DF9113
:1054A000CF911F910F91FF90EF90DF90CF900895D3
:1054B000CF93DF931F92CDB7DEB7698320917D052F
:1054C0002223D1F020917E05203240F021E030E00F
:1054D000FC013383228380E090E015C080917F053A
:1054E000E82FF0E0E058FA4F998190838F5F809326
:1054F0007F0580937E0505C061E0CE0101960E9484
:10550000382B81E090E00F90DF91CF910895FC015E
:105510001382128248EE53E060E070E044835583CA
:10552000668377838AE391E0918380830895109264
:10553000A2051092A10510927F0510927E050C9491
:10554000C72A81E080937D056093A00510927F05B6
:1055500010927E0508950C94A12A0F93062F21E046
:1055600040917E0560E875E08091A0050E94E52AE3
:1055700010927F0510927E0510927D050F9108957F
:1055800061E00C94AD2A81E795E00C94872A109293
:10559000300681E080932E0610922D0661E082E1B4
:1055A0000E94DD2E61E083E10E94DD2EE9EBF0E058
:1055B00080818E7F808380818D7F808388E480934B
:1055C000B80085E48093BC0008950F93413208F041
:1055D00046C0909130069111FCCF92E09093300636
:1055E00000932E069FEF9093C305109208064093F8
:1055F0000706FB0169E076E0DB019A2F961B941702
:1056000018F491919D93F9CF10922F0690912F0647
:10561000880F892B80932F0680912D06813041F4CD
:1056200010922D0680912F068093BB0085EC01C05F
:1056300085EE8093BC00222321F0809130068230D9
:10564000E1F38091C3058F3F61F08091C305803203
:1056500051F08091C305803341F483E007C081E0BD
:1056600005C080E003C082E001C084E00F9108958E
:10567000613298F420913006243089F46093E50576
:10568000FC0187EE95E0DC012A2F281B261718F471
:1056900021912D93F9CF80E0089581E0089582E073
:1056A000089585ED8093BC008091BC0084FDFCCF03
:1056B00010923006089585EC8093BC00109230065D
:1056C00008951F920F920FB60F9211242F933F93BC
:1056D0004F935F936F937F938F939F93AF93BF93FA
:1056E000EF93FF938091B900887F803609F49CC0C6
:1056F00068F5883209F45BC090F4803109F454C035
:1057000038F4882309F4F5C0883009F44DC0F5C099
:10571000883109F44CC0803209F45DC0EEC0803499
:1057200009F468C048F4803309F455C0883309F09F
:10573000E4C08093C305A8C0803509F44FC0883504
:1057400009F45DC0883409F0D8C0D5C0883909F49F
:10575000C6C0A8F4883709F467C038F4883609F45D
:1057600063C0803709F460C0C8C0883809F4B7C086
:10577000803909F45FC0803809F0BFC05BC0803B4E
:1057800009F485C038F4803A09F466C0883A09F40F
:105790007EC0B3C0803C09F4A6C0883C09F4A3C015
:1057A000883B09F489C0A9C080912F0610C0909150
:1057B000080680910706981770F5E091080681E0C9
:1057C0008E0F80930806F0E0E75FF94F80818093A9
:1057D000BB0085EC85C08093C3058DC0E0910806B1
:1057E00081E08E0F809308068091BB00F0E0E75FB8
:1057F000F94F808390910806809107066DC0E09173
:10580000080681E08E0F809308068091BB00F0E0CF
:10581000E75FF94F808380912E0681116CC081E093
:1058200080932D0684EA60C083E080933006109256
:10583000C405CFCF8091C405803208F050C0E091FC
:10584000C40581E08E0F8093C4058091BB00F0E019
:10585000EB53FA4F8083BDCF8091C405803230F482
:10586000E091C405F0E0EB53FA4F10820E94512BF7
:105870006091C40570E0E0912906F0912A0685EC5C
:1058800095E009951092C4050E945B2B36C084E018
:10589000809330061092E6051092E505E0912B0604
:1058A000F0912C0609958091E505811105C081E0F4
:1058B0008093E5051092E705E091E60581E08E0F03
:1058C0008093E605F0E0E951FA4F80818093BB00B8
:1058D0009091E6058091E505981708F47ACF85E860
:1058E0008093BC000AC085EC8093BC001092300607
:1058F00004C01092C3050E94512BFF91EF91BF91FC
:10590000AF919F918F917F916F915F914F913F9157
:105910002F910F900FBE0F901F9018958230E8F4D2
:10592000E82FF0E0EE0FFF1FEF5CF94F718360830B
:10593000813041F0809169008C7F842B80936900D5
:10594000E89A089580916900440F551F440F551F30
:10595000837F842B80936900E99A0895823068F4EC
:10596000813011F0E89801C0E998E82FF0E0EE0FDF
:10597000FF1FEF5CF94F1182108208951F920F9262
:105980000FB60F9211242F933F934F935F936F9312
:105990007F938F939F93AF93BF93EF93FF938091E8
:1059A000310690913206892B29F0E0913106F09171
:1059B00032060995FF91EF91BF91AF919F918F9121
:1059C0007F916F915F914F913F912F910F900FBEFB
:1059D0000F901F9018951F920F920FB60F921124DF
:1059E0002F933F934F935F936F937F938F939F93E7
:1059F000AF93BF93EF93FF9380913306909134065A
:105A0000892B29F0E0913306F09134060995FF9136
:105A1000EF91BF91AF919F918F917F916F915F9126
:105A20004F913F912F910F900FBE0F901F9018959F
:105A30001F920F920FB60F9211242F933F938F93C3
:105A40009F93AF93BF938091360690913706A091B4
:105A50003806B09139063091350623E0230F2D37F3
:105A600020F40196A11DB11D05C026E8230F029662
:105A7000A11DB11D209335068093360690933706FD
:105A8000A0933806B093390680913A0690913B0670
:105A9000A0913C06B0913D060196A11DB11D8093D9
:105AA0003A0690933B06A0933C06B0933D06BF9107
:105AB000AF919F918F913F912F910F900FBE0F90BB
:105AC0001F9018952FB7F89460913606709137069D
:105AD00080913806909139062FBF08953FB7F8940A
